:100000000C94E1010C9428020C9428020C94280210
:100010000C9428020C9428020C9428020C942802B8
:100020000C9428020C9428020C949A210C946C22B3
:100030000C949E180C9428020C9428020C9428020C
:100040000C9428020C9428020C9428020C94280288
:100050000C9428020C94EB180C9428020C9428029F
:100060000C9428020C9428020C9428020C94280268
:100070000C9428020C9428020C9428020C94280258
:100080000C9428020C9428020C9428020C94280248
:100090000C9428020C9428020C9428020C94280238
:1000A0000C9428020C9428020C942802000E000ED6
:1000B000320E320E780E960EB60FB60FA10E360F18
:1000C000470F470FA60FB60FB60FAF0F641064109F
:1000D000761076106D10761076107610641064101D
:1000E0007210761076107210D9220023F8230023A4
:1000F000F8234C236F23F823C623D52329001E00A1
:100100001F0020002100220001513500230024009F
:100110002500260027002D002B0014001A000800DF
:1001200015001700190800001C0018000C00120030
:1001300013003100E00004001600070009000A0067
:10014000000000000B000D000E000F00330028001F
:10015000E1001D001B00060019000500060805004F
:1001600011001000360037003800E5001D08E300DC
:10017000E2000000E1000000000000000000E500D7
:100180002D002E002F00300000001F022A002C41FD
:10019000340050004F0052004C00510028412B0009
:1001A0002002000001003A003B003C003D003E0000
:1001B000010001003F0040004100420043004400B4
:1001C000010000000000F0000000FA000100010042
:1001D0004A004B00520000000000450001000000F2
:1001E000F200F100F300F900000000004D005000A3
:1001F00051004F000000010001000000000000005D
:10020000FC00FB000100010000004E0000000000A7
:1002100000000100000000000000F400F5000000F4
:1002200000000000000001000000000000000000CD
:1002300000000100010001000100010001000100B7
:10024000010001000100010001000000120345004F
:10025000720067006F0044006F006E0065000000D0
:1002600012034B002E0054002E0045002E004300C8
:100270002E0000000403090409023B00020100A053
:10028000FA09040000010301010009211101000124
:100290002240000705810308000A09040100010348
:1002A00000000009211101000122BC0007058203A2
:1002B00020000A1201100100000008EDFE0DE60109
:1002C000000102000105010902A10185020901A145
:1002D00000050919012905150025019505750181FC
:1002E0000295017503810105010930093115812548
:1002F0007F95027508810609381581257F9501755E
:10030000088106050C0A38021581257F95017508BC
:100310008106C0C005010980A101850319012AB722
:1003200000150126B700950175108100C0050C0964
:1003300001A101850419012AA002150126A0029538
:100340000175108100C005010906A1018505050799
:1003500019E029E7150025019508750181020507B7
:10036000190029EF1500250195F075018102050896
:1003700019012905950575019102950175039101F2
:10038000C005010906A101050719E029E7150025A7
:10039000019508750181029501750881010507190C
:1003A0000029FF150026FF00950675088100050845
:1003B00019012905950575019102950175039101B2
:1003C000C00011241FBECFEFDAE0DEBFCDBF04B600
:1003D00003FE27C08091D8029091D902A091DA0241
:1003E000B091DB028730904BA740B04BD1F4109214
:1003F000D8021092D9021092DA021092DB0214BED7
:1004000084B7877F84BF0FB6F894A8958091600069
:10041000886180936000109260000FBEE0E0F8E316
:10042000099511E0A0E0B1E0ECE3F9E402C0059029
:100430000D92A637B107D9F722E0A6E7B1E001C0D7
:100440001D92A83DB207E1F70E94DA1E0C949C248D
:100450000C9400001092B9008AE08093B8000895CF
:1004600094EA9093BC009091BC0097FFFCCF9091D0
:10047000B900987F983021F0903111F081E0089513
:100480008093BB0084E88093BC008091BC0087FF10
:10049000FCCF8091B900887F883111F0803471F7EA
:1004A00080E008950C94300284E98093BC00809130
:1004B000BC0084FDFCCF08958093BB0084E880934A
:1004C000BC008091BC0087FFFCCF9091B900987F61
:1004D00081E0983209F480E0089584E88093BC00BC
:1004E0008091BC0087FFFCCF8091BB00089580B352
:1004F0008F7080BB81B38F7081BB84B1897F84B9D9
:1005000085B1897F85B90C94F5036E98769A8AB186
:1005100083768AB98BB18C698BB93E98469A2498B8
:100520002C9A0C942A0408950C9493020C94930230
:100530000E9477020E948502EAECF1E086E791E0F2
:1005400011921192DC012EE01D922150E9F70E96D6
:1005500021E08A3C9207A1F70C94A3050E94770240
:100560000E948502EAECF1E011821082138212826D
:1005700015821482178216821186108613861286BF
:1005800008952EE0829FC0011124FC01EA58FE4F1D
:1005900020E030E040E050E061E070E0908199239D
:1005A00019F09150908309C0CB01022E02C0880F30
:1005B000991F0A94E2F7482B592B2F5F3F4F319632
:1005C0002E30310559F7CA010895CF932EE0629F6E
:1005D000B001112420E030E0A1E0B0E0C5E0AD01C1
:1005E000022E02C0440F551F0A94E2F748235923F4
:1005F000452B31F0FB01E20FF31FEA58FE4FC08399
:100600002F5F3F4F2E30310551F7CF9108954F9214
:100610005F927F928F929F92AF92BF92CF92DF9222
:10062000EF92FF920F931F93CF93DF930E941004DA
:100630000AEC11E0C0E0D1E0C33099F028F4C130F9
:1006400051F0C23059F004C0C43071F0C53079F0B7
:10065000849A8C980EC0859A8D980BC0869A8E9835
:1006600008C0879A8F9805C0219A299802C0229ABB
:100670002A988C2F0E94F90380EA8A95F1F78C2F33
:100680000E94C1025C010E945B044B9904C060E4BB
:10069000E62EF12C02C0E12CF12C4A9903C0A0E215
:1006A000B0E002C0A0E0B0E04C9904C050E1452E9B
:1006B000512C02C0412C512C369903C068E070E0E7
:1006C00002C060E070E029B1022E000C330B2095CF
:1006D00030952227330F221F3327220F331F220F7B
:1006E000331F669903C042E050E002C040E050E092
:1006F00073B0F801C080D1807294EFE07E227D2635
:1007000070FA882480F8912C882999298E299F29AC
:100710008A2B9B2BF201E82BF92B6E2B7F2B262BA0
:10072000372B422B532B4C255D25A422B522AC241C
:10073000BD246C2FC6018A259B250E94E502F80185
:10074000A192B1928F010E947702CF5FC63009F06B
:1007500073CF0E94AD0581E0DF91CF911F910F9182
:10076000FF90EF90DF90CF90BF90AF909F908F90D1
:100770007F905F904F900895E82FF0E0EE0FFF1FFD
:10078000E653FE4F8081918108950895853008F0E9
:100790008F5F2091D60130E0A90102C055954795A1
:1007A0008A95E2F7CA01817008951F93CF93DF9372
:1007B000C091D701CC23A1F0D62F182F80E40E943E
:1007C0003002C82F81110AC0812F0E945C02C82FFD
:1007D000811104C08D2F0E945C02C82F0E94540218
:1007E0008C2FDF91CF911F9108956FEF81E00C94D2
:1007F000D5038F5F61E070E001C0660F8A95EAF76C
:10080000609581E00C94D5036FEF82E00E94D503E0
:100810006FEF8CE00E94D5036FEF81E00C94D5035D
:1008200080E40E94300281110CC00E945402809129
:10083000D70181110EC081E08093D7010E9404048A
:1008400006C08091D701813021F41092D7010C9419
:10085000521008950E942A020C9410040F931F93C3
:10086000CF93DF93C091D701CC23D1F08B01D82F48
:1008700080E40E943002C82F811110C08D2F0E9489
:100880005C02C82F81110AC081E40E945202C82F65
:10089000811104C00E946D02F80180830E945402FD
:1008A0008C2FDF91CF911F910F91089566ED71E02C
:1008B00082E10C942E048F929F92AF92BF92EF929E
:1008C000FF920F931F93CF93DF930E945604C0E0D3
:1008D000D0E000E010E08DE0E82EF12C812C912C8E
:1008E000540183948C2F0E94C603882371F0C701A2
:1008F0008C1B9D0BA501940104C0220F331F441FC4
:10090000551F8A95D2F7022B132B2196CE30D10595
:1009100049F7C801DF91CF911F910F91FF90EF90A0
:10092000BF90AF909F908F90089584B1886684B9EE
:1009300085B1877985B9209A289A559A5D9A089544
:1009400025982D9826982E9823982B982098289AA9
:10095000259A2D9A2FEF80E792E021508040904019
:10096000E1F700C00000269A2E9A2FEF80E792E070
:10097000215080409040E1F700C00000239A2B9A5C
:100980002FEF80E792E0215080409040E1F700C0D7
:10099000000025982D982FEF80E792E021508040AD
:1009A0009040E1F700C0000026982E982FEF80E7D6
:1009B00092E0215080409040E1F700C00000239871
:1009C0002B9825982D9826982E9823982B98209828
:1009D000289A08950E9495040E94A0040C94940201
:1009E0009C013A9521153F4138F5DC01AA27B270E8
:1009F000AC01442754709C012227387094FF0FC02B
:100A000090FF02C080E101C080E0AB2B09F0806262
:100A1000452B09F08064232B69F080680BC0892F77
:100A20008170AB2B09F08260452B09F08460232B89
:100A300009F08860FB0109940895CF93DF93EC01DE
:100A4000805E9109089710F0209719F46CEB7DE017
:100A500002C06AE270E1CE010E94F0048C2FDF91A7
:100A6000CF910C94970CCF93DF93EC010E94410D32
:100A7000CE01805E9109089710F0209719F463EC7D
:100A80007DE002C061E370E1CE01DF91CF910C9473
:100A9000F004CF93DF93EC010E941D05CE01DF919E
:100AA000CF910C94330581E0089581E008950C9472
:100AB000550508950C9459051F93CF93DF9300D0EB
:100AC00000D01F92CDB7DEB749835A836B83309134
:100AD000EF0189819A81311114C0662359F02223D4
:100AE00049F00E949D15182F682F89819A810E94D4
:100AF000461503C00E947115182F69817A81812FD4
:100B000004C00E949D1569817A810F900F900F900B
:100B10000F900F90DF91CF911F910C942406FC0150
:100B2000262F408151816281738184810C945C0500
:100B3000CF93DF93EC0160E00E948F05BE01DF914F
:100B4000CF910C945A050E94D216811102C00E94C6
:100B500083170E9443080C94EA040C949602282FF1
:100B60002F7041F0822F90E02A3010F44D960895B6
:100B70000697089587E290E0089508950E94521024
:100B80000E94BD052FEF84E39CE0215080409040FF
:100B9000E1F700C000000C9411190F931F93CF933D
:100BA000DF93EC0161E00E948F058C01BE010E9481
:100BB0005705882379F1BE01C8010E94CD0888231A
:100BC00049F1BE01C8010E945E09882319F1BE01E6
:100BD000C8010E94B0098823E9F0BE01C8010E9443
:100BE000DB0A8823B9F08A81882369F001158CE536
:100BF000180731F00F3D1C4531F40E9483170AC0DD
:100C00000E94BE0507C0CE01DF91CF911F910F91C9
:100C10000C94530580E0DF91CF911F910F910895BF
:100C200008950C94100681E008950C941306CF9358
:100C3000C82F0E9411068C2F0E941506CF9108958F
:100C400080E090E00895089524E5829FC00111247A
:100C5000FC012EE0729FE00DF11D1124E60FF11D45
:100C6000EE0FFF1FE450FF4F859194910895880F78
:100C7000991FFC01E45BFD4F859194910895CF93FA
:100C8000DF930E9424060E945707EC0181159045CE
:100C900008F041C0C11580E4D80708F0D1C0C83EB3
:100CA000D10510F5C03ED10508F0FDC0C83AD10508
:100CB00078F4C53AD10508F0A2C0C130D10509F4D5
:100CC000F2C008F4EEC0C430D10508F0ECC0E9C0B1
:100CD000CF3BD10508F49BC0C03CD10508F4E1C06E
:100CE000CE01805C91099EC0C11590E2D90758F4ED
:100CF000C11521E0D20708F0D6C0C03FD10508F4E5
:100D0000D0C0D065D0C0C11580E3D80708F08EC030
:100D1000CE019F7087C0C11595E5D90708F043C083
:100D2000C11524E5D20708F0A2C0C11582E5D80795
:100D300008F5C11591E5D90708F085C0CE0174E02A
:100D4000969587957A95E1F783709C2F937021E0B3
:100D500030E002C0220F331F9A95E2F73C68382B2F
:100D6000CF70C695C69580E2C89FE0011124C22BC2
:100D7000D32B99C09E01237033278C2F869586959F
:100D8000C115D34508F064C0C1E0D0E002C0CC0F6B
:100D9000DD1F2A95E2F720E2829FC0011124C82BB3
:100DA000D92BDC6880C0C11529E5D207A0F4C11594
:100DB00088E5D80708F060C0C11596E5D90708F0A6
:100DC00070C08C2F0E94EB078F71C82FD0E0DC2FF2
:100DD000CC27D06268C0C1152AE5D20708F451C0FB
:100DE000CE0190568115904208F05BC08D2F8F7117
:100DF0000E94EB07DD27D0628F71D82B54C0C55AF3
:100E0000D0E0CF5BDE4FC881D0E0D0644CC0C85A80
:100E1000D0E0CC0FDD1FCD5EDE4F0990D881C02D14
:100E2000D46441C00E943706EC013DC0CE01992731
:100E3000D3FF03C0EC01D86C36C0EC01D06C33C0DA
:100E4000DF70D06A30C0DC2FCC27C16FD06A2BC0D6
:100E5000C1E0D0E002C0CC0FDD1F2A95E2F720E20E
:100E6000829FC0011124C82BD92BDA681CC0DC2F4B
:100E7000CC27C46FD06A17C0DC2FCC27C06FD06AD4
:100E800012C08C2F8F700E94EB0794E0D695C79507
:100E90009A95E1F7CF70D0E0DC2FCC27D069C82B32
:100EA00002C0C0E0D0E0CE01DF91CF91089582383A
:100EB000910569F1B0F48133910509F46DC048F4EE
:100EC0008932910509F463C08A32910509F469C039
:100ED00008958533910509F455C089339105B9F01A
:100EE0000895833E910569F138F4803E9105B1F093
:100EF000823E910509F10895863E9105A9F1873E4C
:100F00009105B9F1843E910509F064C023C0209198
:100F1000C90220FD4FC021FD4DC008958091C90236
:100F200080FD44C08091CA0280FF44C08091C90204
:100F300084FD42C083EE4DC08091C90282FF38C05B
:100F4000F5CF8091C90282FD33C08091CA0280FD35
:100F500031C0ECCF8091CA0281FF32C08091C902BA
:100F600084FD2AC087EE35C08091C90283FF26C068
:100F7000F5CF8091C90283FD21C08091CA0281FD15
:100F80001FC0ECCF8091C90285FD1CC01DC080919F
:100F9000C90285FD19C016C08091C90286FD16C020
:100FA00017C08091C90286FD13C010C089E311C02B
:100FB00082EE0FC080EE0DC080E00BC086EE09C04F
:100FC00084EE07C089E205C085E303C08AE201C060
:100FD00081E390E008959091C90292FF0DC0282FFF
:100FE0002871283019F4877F846006C0282F247167
:100FF000243011F48B7F886093FF0DC0282F287157
:10100000283119F4877E846106C0282F2471243189
:1010100011F48B7E88612091CA0220FF0DC0382F09
:101020003871383019F4877F816006C0382F3171EC
:10103000313011F48E7F886021FF0DC0282F287178
:10104000283119F4877E816106C0282F2171213152
:1010500011F48E7E886194FD877E0895CF93DF938F
:1010600097FF0DC0FB012281222349F0EC010E9471
:101070005908CE019F770E94B0080E94920881E033
:10108000DF91CF9108958CE090E00E945A2490E087
:10109000A0E0B0E08093BF029093C002A093C10291
:1010A000B093C20208956091BF028CE090E00C946E
:1010B00068240E941D0B869581708093C4029091D4
:1010C000BF02913029F4882319F089E30E94A90D09
:1010D0000E941E168093C3020E9431168091BF02A7
:1010E000813071F048F0823081F08430A1F486EED6
:1010F0000E94A90D88E10DC082EE0E94970C0BC0E2
:1011000088E193E00E94490506C082EE0E94970C98
:1011100087E50E94A90D8FE39CE90197F1F700C0D4
:10112000000008958091BF02813039F078F082305C
:1011300069F0843089F488E20DC08CE20E94A90D28
:101140008091C402882341F089E304C082EE0E94AA
:10115000410D02C00E94A90D8091C3020C942E166D
:101160000F931F93CF93DF938C01CCE0D0E0C801A5
:101170000C2E02C0969587950A94E2F78F700E9414
:10118000AF050E9449052497CC3F8FEFD80779F728
:10119000DF91CF911F910F9108950F931F93CF93DC
:1011A000DF93EC018B01FB018281882361F00E94B7
:1011B0001E16CE01825E9C458530910520F48093F9
:1011C000BF020E945308B801CE01DF91CF911F9159
:1011D0000F910C942E080F931F93CF93DF93C42F7E
:1011E000D22FFC0182818823C9F04093DA010E944A
:1011F000D0189093D9018093D80180E28C0F883069
:1012000008F057C0C77081E001C0880FCA95EAF79F
:10121000DF91CF911F910F910C94BC0D8091DA0159
:10122000481330C08091D8019091D9010E94DC18F8
:10123000883C910538F510E21D0FCD17B9F080E21A
:101240008C0F883040F4C77081E001C0880FCA95C8
:10125000EAF70E94C30D183028F581E09D2F9770A2
:1012600001C0880F9A95EAF70E94BC0D802F0E945A
:10127000A90D1830F0F4D77081E001C0880FDA951D
:10128000EAF70AC080E28C0F883098F4C77081E0DA
:1012900001C0880FCA95EAF7DF91CF911F910F9196
:1012A0000C94C30D802FDF91CF911F910F910C945F
:1012B000A90DDF91CF911F910F9108950F939C017C
:1012C000CB01243F4CE5340731F188F4293DFCE59E
:1012D0003F07D9F02A3D4CE5340779F1283D3C45DC
:1012E000A9F506E221EE41EE68ED7CE52BC0263F34
:1012F000FCE53F07E1F0A8F0273F3C4539F507E260
:1013000025EE46EE67EF7CE51DC007E225EE45EED3
:1013100069ED7CE517C006E221EE40EE64EF7CE566
:1013200011C007E225EE44EE65EF7CE50BC006E256
:1013300021EE42EE66EF7CE505C008E221E045EED5
:101340006AED7CE50E94EB0880E008C0FC01828128
:10135000882319F01092DA0101C081E00F910895FD
:10136000CF93DF93EC01FB018281882309F41FC135
:10137000C230FCE5DF0708F41BC1C6319CE5D90784
:1013800038F09E012B5F3C452930310508F010C133
:101390000E94EF169093CA028093C902C031ECE517
:1013A000DE0709F4C3C008F041C0C8308CE5D80797
:1013B00009F49AC0F0F4C430ECE5DE0709F487C004
:1013C00068F4C2308CE5D80709F477C0C330DC4537
:1013D00009F0E3C08091C902826076C0C630ECE5B6
:1013E000DE0709F46EC008F07BC08091C9028860F6
:1013F0006BC0CC308CE5D80709F485C068F4CA30DE
:10140000ECE5DE0709F474C008F079C00E945210C0
:101410008091C902806858C0CE308CE5D80709F4A5
:1014200076C008F07FC08091C9028BC0CC3FECE54C
:10143000DE0709F44FC018F5C3318CE5D80709F46D
:101440007DC078F4C131ECE5DE0709F473C0C23128
:10145000DC4509F0A2C00E9452108091C9028F772A
:1014600033C0C5318CE5D80709F472C008F486C0D2
:10147000CB3FDC4509F091C08091CA023EC0C11546
:10148000FDE5DF0709F45FC058F4CE3F9CE5D907BE
:1014900009F444C008F43FC08091CA0282602DC0A4
:1014A000C230FDE5DF0709F475C008F45DC0C33044
:1014B000DD4509F072C080E06EC08091C902816094
:1014C00003C08091C90280618093C90266C0809187
:1014D000C90211C08091CA0282608093CA025DC0B5
:1014E0008091C9028062F0CF8091C9028064ECCF04
:1014F0008091C90288608460E7CF8160EECF8091DF
:10150000C9028E7FE1CF8091C9028D7FDDCF8091AE
:10151000C902877FD9CF8091CA0218C08091CA02C0
:101520008D7FDBCF8091C9028F7ECECF8091C902A3
:101530008F7DCACF8091C9028F7BC6CF8091C902AF
:10154000877F8B7FC1CF8091CA028D7F8E7FC5CF71
:101550008091C90282FB222720F991E0922790FB1B
:1015600082F990FB83F9B0CF8091CA02982F9095B1
:1015700091708E7F892B90FB81F9AFCF0E94521022
:101580008091C90287FB222720F991E0922790FBE6
:1015900087F99ACF81E00E9485178091C9029091C6
:1015A000CA020E9400170E94521080E001C081E030
:1015B000DF91CF910895CF93DF9386319C4541F51C
:1015C000EB010E941E16982F8A8120910001309114
:1015D0000101882379F09A7A81E009F480E0809310
:1015E000DB01911102C069E201C065E3C9010E94FB
:1015F00020180AC08091DB01811102C069E201C09C
:1016000065E3C9010E942B180E946F1680E001C09B
:1016100081E0DF91CF9108959093E1018093E00103
:101620000895E091E001F091E101309721F00190FF
:10163000F081E02D099480E00895E091E001F091BF
:10164000E101309711F480E008950190F081E02DE0
:1016500009950895E091E001F091E101309799F04A
:1016600020911201222359F02091C90227FF07C0BF
:10167000DC012C9111962C93119725E02C9302807C
:10168000F381E02D09940895E091E001F091E101EA
:10169000309739F022E0DC012C930480F581E02DB5
:1016A000099408952091DE013091DF012817390750
:1016B00071F09093DF018093DE01E091E001F09101
:1016C000E101309721F00680F781E02D099408951B
:1016D0002091DC013091DD012817390771F09093DA
:1016E000DD018093DC01E091E001F091E1013097B0
:1016F00021F00084F185E02D0994089585B7806874
:1017000085BF85B7806885BF089581E008950C94F2
:10171000850B08950C94890B0C94890B0C948C0BFD
:101720000C94890B0C94900B0C94890B0E947E0BEB
:101730000E94940B0C94920B0E94C7180E9498026E
:101740000E946E19E9ECF2E08081806880838091CC
:10175000C9029091CA020E9400170C948E0B7F92CE
:101760008F929F92AF92BF92CF92DF92EF92FF92B1
:101770000F931F93CF93DF93CDB7DEB72A970FB6A2
:10178000F894DEBF0FBECDBF0E948A0B0E94890B6A
:101790000E9407030E94870B811111C08FEF89837C
:1017A0008A831B820E94D0188160782F9D838C834E
:1017B00049815A816B818D810E94630C4FC043EE39
:1017C000A42E41E0B42E00E010E0702E802F0E9485
:1017D000BC036C01F501819091905F0188269926E8
:1017E0008114910431F40F5F1F4F0630110569F722
:1017F000D5CF80918C0281FD0E94C50380E0EE244C
:10180000E394F12C94012E213F21232B09F18E83A7
:101810007F82CE20DF2081E0CD2809F480E0888718
:101820000E94D0188160782F9A8789874E815F81C6
:1018300068858A850E94630C000F111FF801ED5125
:10184000FE4F80819181E826F926F182E08206C070
:101850008F5FEE0CFF1C8E30A9F6C5CF0E943F1C97
:101860000E94110B9091E2018917C9F00E94110B9F
:101870008093E2012A960FB6F894DEBF0FBECDBF6B
:10188000DF91CF911F910F91FF90EF90DF90CF905C
:10189000BF90AF909F908F907F900C9417062A96E0
:1018A0000FB6F894DEBF0FBECDBFDF91CF911F9171
:1018B0000F91FF90EF90DF90CF90BF90AF909F90EF
:1018C0008F907F900895CF93DF93CDB7DEB72B979E
:1018D0000FB6F894DEBF0FBECDBF4F835887698720
:1018E0007A878B87DE01119686E0FD0111928A9539
:1018F000E9F785E0FE01379601900D928A95E1F7B0
:1019000049815A816B817C818D819E810E940B135C
:101910002B960FB6F894DEBF0FBECDBFDF91CF91EF
:101920000895FC01808191810E94DF150895CF9375
:10193000882309F4A4C0C82F8238C1F40E94110B77
:1019400081FD9DC069E380910001909101010E9499
:1019500020180E946F162FEF81EE94E021508040F6
:101960009040E1F700C0000069E319C0833801F539
:101970000E94110B80FD83C063E58091000190916E
:1019800001010E9420180E946F162FEF81EE94E053
:10199000215080409040E1F700C0000063E5809155
:1019A0000001909101010E942B18CF910C946F16A9
:1019B0008438C1F40E94110B82FD61C067E48091FC
:1019C0000001909101010E9420180E946F162FEFD4
:1019D00081EE94E0215080409040E1F700C000008B
:1019E00067E4DDCF8CEF8C0F813AD0F46C2F8091BF
:1019F0000001909101010E94A017882349F06C2FEB
:101A000080910001909101010E942B180E946F1695
:101A10006C2F80910001909101010E942018C5CF88
:101A200080E28C0F883048F4C77081E001C0880FD5
:101A3000CA95EAF70E942116B8CFEBE5EC0FE33028
:101A400040F4F0E0EE58FE4F808190E0CF910C948E
:101A5000520BE8E5EC0FE73150F4F0E0EE0FFF1F1A
:101A6000EC5BFE4F80819181CF910C94680BC03F5D
:101A700030F08C2F0E94341BCF910C94211CCF91FD
:101A80000895882309F464C0823879F40E94110B08
:101A900081FF5EC069E380910001909101010E9485
:101AA00020180E946F1669E310C08338B1F40E94B9
:101AB000110B80FF4DC063E5809100019091010101
:101AC0000E9420180E946F1663E58091000190919A
:101AD00001010E942B180C946F16843879F40E942F
:101AE000110B82FF35C067E48091000190910101E4
:101AF0000E9420180E946F1667E4E7CF9CEF980FB2
:101B0000913A10F4682FE1CF90E2980F983050F49A
:101B1000877091E001C0990F8A95EAF7892F0E949A
:101B20002716D9CF9BE5980F933020F480E090E002
:101B30000C94520B98E5980F973120F480E090E0D8
:101B40000C94680B803F20F00E949C1B0C94211C7D
:101B50000895CF93C82F0E94970CC93349F42FEFF3
:101B600087EE93E0215080409040E1F700C00000F4
:101B70008C2FCF910C94410D882321F00E942116C7
:101B80000C946F160895882321F00E9427160C9458
:101B90006F160895CF92DF92EF92FF920F931F93EB
:101BA000CF93DF937C01062FC72FFC01158112957F
:101BB0001F70D281D1110E9441160E9417168823EE
:101BC00099F0DD2389F08C2F807F803421F080E232
:101BD000800F883048F082E00E94B9160E941716E4
:101BE00091E0D82ED92601C0D12CCC2EC2948FE002
:101BF000C8228C2D90E0FC01EA5AFF4F0C9440243F
:101C00008C2F807FCF70882311F0C295C07FDD2399
:101C100099F0CC2309F485C180E2800F883010F060
:101C2000011104C08C2F0E94211603C08C2F0E942A
:101C300034160E946F1675C1802F0E94410DCC236F
:101C400009F494C180E2800F883010F0011104C0C3
:101C50008C2F0E94271603C08C2F0E943A160E94D8
:101C60006F1684C18C2F807FCF70803211F0C295A7
:101C7000C07F002319F00130C9F024C0DD2371F0CA
:101C8000112341F0113031F40E9454168C2B0E9424
:101C90005C166CC10E9454168C2B0EC0112319F0D7
:101CA000113009F463C10E9465161EC0DD2339F0AE
:101CB000123008F05BC18C2F0E94BC0D57C111116E
:101CC00055C112C0DD2319F01123A9F32AC1112334
:101CD00059F0093309F036C1FFEF27EE83E0F150E8
:101CE00020408040E1F72CC18C2F0E94C30D3EC1E3
:101CF0008C2F86958695837019F0813061F036C1FE
:101D0000DD2321F0802F9C2F937002C080E090E0B3
:101D10000E94520B33C1DD2321F0802F9C2F937042
:101D200002C080E090E00E94680B28C1802FDD2374
:101D300019F00E94341B02C00E949C1B0E94211CAF
:101D40001DC18C2F837009F045C0D11113C1402FE4
:101D5000429546954770440F440F602F6F70862F51
:101D600090E0A0E0B0E0042E04C0880F991FAA1FE5
:101D7000BB1F0A94D2F704FF10C00FE010E020E070
:101D800030E004C0000F111F221F331F4A95D2F705
:101D9000009510952095309503C000E010E0980163
:101DA000C695C695C370BC01CD01602B712B822BEB
:101DB000932BC23049F058F4C13019F00E945C14E2
:101DC000D9C00E944A14D6C00E946E14D3C00E948B
:101DD0004814D0C0DD2319F08C2F817001C0869586
:101DE000882309F4C7C0402F429546954770440F99
:101DF000440F602F6F70862F90E0A0E0B0E0042EBB
:101E000004C0880F991FAA1FBB1F0A94D2F704FFB2
:101E100010C00FE010E020E030E004C0000F111F00
:101E2000221F331F4A95D2F70095109520953095C3
:101E300003C000E010E09801C695C695C370BC01D0
:101E4000CD01602B712B822B932BC23049F058F4BB
:101E5000C13019F00E9421158DC00E940F158AC053
:101E60000E94331587C00E94821484C0CF70DD2386
:101E700039F08C2F0E94A814802F0E94BC0D7AC0CC
:101E8000802F0E94C30D8C2F0E94C91473C0023F83
:101E9000F9F028F4003F41F0013F99F03EC0033FC4
:101EA000F1F0043F31F139C0DD2339F011115EC08A
:101EB0008C2F8F710E94EE1459C0123008F056C05A
:101EC000F7CFDD2339F08C2F8F710E94A8144EC0FC
:101ED000DD23C9F38C2F8F710E94C91447C0DD2305
:101EE00029F08C2F8F710E94931440C00E948E1491
:101EF0003DC0DD2349F0CF718C2F0E94A81463E010
:101F00008C2F0E94A41632C081E00E94B9161230B4
:101F100068F182E00E94B91629C0DD2331F0112357
:101F200091F2802F0E94970C21C0112399F209335E
:101F300049F49FEFE7EEF3E09150E040F040E1F725
:101F400000C00000802F0E94410D10C04C2F4F7028
:101F5000602FC7010E9420060E94B9130FC04C2FAA
:101F60004F70602FC7010E94230608C088EF8C0DB8
:101F7000843020F40E94110B0E941706DD20C9F066
:101F80000E94131680FD15C0F70112820E940D16E3
:101F90000E94A814C7010E94FA0F0E940D16DF913B
:101FA000CF911F910F91FF90EF90DF90CF900C9405
:101FB000C914DF91CF911F910F91FF90EF90DF90A7
:101FC000CF9008950F931F93CF93DF93EC01688117
:101FD00079818A810E94EA158C010E9445150E9430
:101FE0003614B801CE010E94CA0DDF91CF911F9126
:101FF0000F910895CF93DF93EC01988189812B8114
:102000003C81232B31F08F3F31F481E09F3F19F465
:1020100003C081E001C080E080FD19C0CE010E94B4
:10202000CD0581110CC00E941716882381F08A818A
:10203000882369F082E0DF91CF910C94B916CE012C
:102040000E94E20FCE01DF91CF910C949805DF91B1
:10205000CF910895882321F00E9434160C946F16B6
:102060000895882321F00E943A160C946F16089563
:102070000E9441160E9451160E946F160E94521D26
:102080000E94211C80E090E00E94520B80E090E0D2
:102090000C94680B80910001909101010E94361808
:1020A0000C9438100E9431160C944A10E92FE295D6
:1020B000EF704E2F50E0FA013297EE30F105B0F498
:1020C000EA59FF4F0C944024803F91F018F4883E69
:1020D00068F40EC0843F51F40BC0883E48F0813F45
:1020E00029F406C093FB882780F9089580E00895BD
:1020F00081E008950E94DF150E9456100895CF9345
:10210000DF9300D000D01F92CDB7DEB70F900F90B5
:102110000F900F900F90DF91CF910895CF93DF93A1
:1021200000D000D000D0CDB7DEB726960FB6F89419
:10213000DEBF0FBECDBFDF91CF9108951F93CF9328
:10214000DF93C091F00116E08091F101C81799F07A
:10215000D0E01C9FF0011D9FF00D1124EE50FE4FAA
:102160004081518162817381848195810E948E10AA
:102170002196C770E9CFDF91CF911F9108954091CB
:1021800022025091230260912402709125028091D5
:102190002602909127020C948E100F931F93CF93D9
:1021A000DF938091270282958F7009F05DC0809146
:1021B0002402882309F458C08091F0011091F101A4
:1021C0006091220270912302C0912502D0912602D3
:1021D00091E06F3F09F090E0292F06E0811709F4A4
:1021E00043C0209721F07F3F21F030E003C031E071
:1021F00001C0322F90E030FD34C0089FF001099FEC
:10220000F00D1124DF01AE50BE4F11963C91119795
:10221000371327C03C91361324C012963C91129775
:1022200031111FC013964D915C9114974C1B5D0B9F
:10223000483C5105B0F4809127028F7080618093F3
:102240002702E950FE4F80818F708061808382E297
:1022500092E00E94FA0FDF91CF911F910F910C94A1
:102260009E1001968770BACFDF91CF911F910F9189
:1022700008959F92AF92BF92CF92DF92EF92FF921A
:102280000F931F93CF93DF93CDB7DEB761970FB650
:10229000F894DEBF0FBECDBF8C0185E0F801DE01F2
:1022A0001D9601900D928A95E1F7F80140815181C8
:1022B000E2809091220260912302209125023091C8
:1022C00026022115310531F06F3F31F481E09F3F47
:1022D00019F403C081E001C080E0F82FF1709F2E57
:1022E00080FD46C1F801A380B48082E2C82E82E05E
:1022F000D82EF0902402F501E21BF30BFF2009F425
:10230000DFC080912702E83CF10508F09BC0282F30
:10231000207F09F052C0561313C0491311C0FE2C80
:10232000E1100EC08F708061809327020E94BF1061
:10233000C6010E94FA0F80912702F801858358C1D7
:10234000AB2831F05F3F31F481E04F3F19F403C017
:1023500081E001C080E080FD03C081E08E2502C0E5
:1023600080E090E0F82FF170FF2E80FF1CC080917C
:10237000F0012091F10136E0821709F417C190E0D5
:10238000389FF001399FF00D1124EE50FE4F61810E
:10239000561306C06081461303C06281E61203C073
:1023A00001968770E9CFFE2CEE2009F421C18091BF
:1023B00027028160809327025AC0561306C0491332
:1023C00004C0E11002C0F8019FC04D875E878D8573
:1023D0009E850E947A10882379F1EE2069F1209180
:1023E0002702822F82958F7090E0029774F080917F
:1023F00022029091230298878F831986BB86AA8632
:102400002C87CE0107960E94FA0F86E0F801A2E21F
:10241000B2E001900D928A95E1F70E94CD100E94E2
:10242000BF100DC0561729F14D875E878D859E859B
:102430000E947A1081112CC0C8010E94FA0FFF245B
:10244000F394D6C0282F207F69F77A2DB98AA88AFD
:102450006E2D89890E947F1082E292E00E94FA0F1D
:1024600086E0F60111928A95E9F70E94BF10F12CDF
:10247000BFC04913D9CFE110D7CFF8018583C80178
:102480000E94FA0F86E0F60111928A95E9F7B0C032
:10249000EE2091F220912702822F82958F7090E09A
:1024A00002970CF4B2CF80912202909123029A837A
:1024B00089831B82BD82AC822E83CE010196A3CF7D
:1024C000E83CF10508F047C0FE2CEE2009F4B4CF3B
:1024D000561330C049132EC02091270220FD21C081
:1024E000822F82958F70482F50E041155105C9F019
:1024F000F80125834F30510541F08F5F982F929559
:10250000907F822F8F70892B8583C8010E94FA0FDC
:1025100086E0F801A2E2B2E001900D928A95E1F71F
:1025200042C086E0F801A2E2B2E001900D928A95E5
:10253000E1F75EC04D875E878D859E850E947A108B
:10254000811163CF80912702816080932702C801A7
:102550000E94FA0F4DC07A2DB98AA88A6E2D8989FA
:102560000E947F1086E0F60111928A95E9F71BC060
:10257000EE2009F461CF4D875E878D859E850E9490
:102580007A10F82E882309F457CF86E0F801A2E2EA
:10259000B2E001900D928A95E1F782E292E00E940A
:1025A000910C0E94CD100E94BF1022C04D875E8703
:1025B0008D859E850E94DF15292F22952F70223050
:1025C00028F49F7039F0811105C00BC0243028F425
:1025D0009F7049F4805E883020F0C8010E94FA0F95
:1025E0009F2CF92C05C0F8019581907F99F7F9CFC0
:1025F0008F2D61960FB6F894DEBF0FBECDBFDF9171
:10260000CF911F910F91FF90EF90DF90CF90BF90EF
:10261000AF909F9008951F93CF93DF93CDB7DEB710
:102620002C970FB6F894DEBF0FBECDBF4F835887EF
:1026300069877A878B879C87CE0107960E9439111C
:102640008823D1F09F8188852A853B85232B31F013
:102650008F3F31F481E09F3F19F403C081E001C056
:1026600080E080FD47C04F81588569857A858B85DC
:102670009C850E948E103EC086E0FE013796DE01EA
:10268000119601900D928A95E1F7FF81E8856A85A0
:102690007B856115710531F0EF3F31F481E0FF3F3B
:1026A00019F403C081E001C080E080FD23C02091C7
:1026B000F10130E0C9010196877099274091F0013E
:1026C00050E084179507F1F1F983EA837D836C83E9
:1026D00096E0929FD001939FB00D1124AE50BE4F53
:1026E000FE01319601900D929A95E1F78093F101E8
:1026F0000E949E1016E08091F0019091F1018917DF
:1027000071F1189FC00111248E509E4F0E94391103
:10271000882329F1E091F0011E9FF0011124EE5071
:10272000FE4F4081518162817381848195810E9435
:102730008E108091F00190E0019687709927809328
:10274000F001D9CF0E9452101092F1011092F001C5
:10275000E2E2F2E086E0DF011D928A95E9F72C962D
:102760000FB6F894DEBF0FBECDBFDF91CF911F91A2
:102770000895EF92FF920F931F93CF93DF938C01F5
:10278000892B09F46CC0F12CEE24E394E801219626
:10279000F8018491843740F4843008F051C08130CE
:1027A00081F0823019F15BC0853709F444C0A8F18B
:1027B0009CE7980F903708F052C08F770E94410D28
:1027C00041C00E5F1F4FFE01849190E2980F983038
:1027D00050F48770FE2D01C0FF0F8A95EAF78F2F06
:1027E0000E94441614C00E94970C2DC00E5F1F4F0C
:1027F000FE01849190E2980F983060F48770FE2D6E
:1028000001C0FF0F8A95EAF78F2F0E944A160E9497
:102810006F1619C00E94410D16C00E5F1F4FFE01BA
:10282000C491CC2381F08FE99FE00197F1F700C0BC
:102830000000C150F6CF0E5F1F4FFE01F49003C0A1
:102840000E94970C8E018F2D882309F49FCFEFE90A
:10285000FFE03197F1F700C000008150F5CFDF9124
:10286000CF911F910F91FF90EF90089508950895D3
:102870000C9437140C9438140E943A146093630239
:102880007093640280936502909366020C943810F2
:102890000C943C140F931F930091630210916402F7
:1028A0002091650230916602602B712B822B932B55
:1028B0001F910F910C943C140F931F93009163028E
:1028C00010916402209165023091660260237123A9
:1028D000822393231F910F910C943C140F931F9309
:1028E00000916302109164022091650230916602AA
:1028F00060277127822793271F910F910C943C1416
:102900000C9437140E94801460935F0270936002ED
:1029100080936102909362020C94381060E070E042
:10292000CB010C9482140F931F9341E050E060E0C0
:1029300070E08A019B0104C0000F111F221F331F8A
:102940008A95D2F7C901B8011F910F910C94821496
:102950000F931F9341E050E060E070E004C0440F2B
:10296000551F661F771F8A95D2F780915F0290915D
:102970006002A0916102B09162028A019B01082B62
:10298000192B2A2B3B2BC901B8011F910F910C94D5
:1029900082140F931F9341E050E060E070E004C0A8
:1029A000440F551F661F771F8A95D2F740955095A3
:1029B0006095709580915F0290916002A091610294
:1029C000B09162028A019B01082319232A233B2329
:1029D000C901B8011F910F910C9482140F931F939A
:1029E00041E050E060E070E004C0440F551F661FF6
:1029F000771F8A95D2F780915F0290916002A09133
:102A00006102B09162028A019B01082719272A27D7
:102A10003B27C901B8011F910F910C9482140F93A9
:102A20001F9300915F02109160022091610230912A
:102A30006202602B712B822B932B1F910F910C94B0
:102A400082140F931F9300915F02109160022091F6
:102A500061023091620260237123822393231F91CC
:102A60000F910C9482140F931F9300915F021091A9
:102A700060022091610230916202602771278227F3
:102A800093271F910F910C94821408952EE0929F2A
:102A9000800D1124E82FE695E695E695877051E0C4
:102AA00001C0550F8A95EAF785E0E89FF0011124EF
:102AB000E85DFD4F20E030E070E04081CB01022E68
:102AC00002C0969587950A94E2F7817081958427D4
:102AD0008523842781932F5F3F4F2530310569F788
:102AE00008952EE0929F800D1124682F66956695BB
:102AF0006695982F977085E0689FB001112440E09B
:102B000050E080E0FB01E40FF51FE85DFD4F208100
:102B100030E0092E02C0369527950A94E2F721701D
:102B20003327042E01C0220F0A94EAF7822B4F5F4D
:102B30005F4F4530510531F70895BF92CF92DF9234
:102B4000EF92FF920F931F93CF93DF938C01C0906E
:102B50005F02D0906002E0906102F090620280918A
:102B6000630290916402A0916502B0916602C82A46
:102B7000D92AEA2AFB2ACFE1D0E0D701C6010C2EE0
:102B800004C0B695A795979587950A94D2F780FDCE
:102B900004C0219790F7B12C07C0BC2EB8018C2F30
:102BA0000E943F060197A9F38B2DDF91CF911F91D2
:102BB0000F91FF90EF90DF90CF90BF900895CF934B
:102BC000DF93EC010E949D15BE010E943F06DF913C
:102BD000CF9108951F93CF93DF93EB019091EF0175
:102BE000992321F0CB010E94DF1513C0882349F0FF
:102BF000CB010E949D15182F682FCE010E9446150B
:102C000004C0CB010E947115182FBE01812F0E94B4
:102C10003F06DF91CF911F910895809167028595BE
:102C200085958595089580916702877008959091A4
:102C30006702977081E009F480E0089580918B022B
:102C4000089590918B02892B80938B020895809533
:102C500090918B02892380938B02089580938B023D
:102C6000089510928B02089590918A02892B809387
:102C70008A020895809590918A02892380938A021E
:102C8000089510928A02089590918902892B809369
:102C90008902089580959091890289238093890201
:102CA0000895109289020895809168020895089508
:102CB0000C9457160C94581690916802981721F0AE
:102CC000809368020C945A160895809168028823B4
:102CD00029F01092680280E00C945A160895E09151
:102CE0000001F091010180918B028083E09100014D
:102CF000F0910101908180918A02892B8083E0917B
:102D00000001F0910101908180918902892B8083DB
:102D100080916802882381F0E0910001F091010127
:102D20009081892B808380910001909101010E9404
:102D30008A1781110E94651680910001909101010E
:102D40000C942A0B0C94571698E0899F900111243B
:102D5000262B209367020E94A81480916702859514
:102D6000859585950C94A2161092670280E00C94CC
:102D7000A216209167028095822380936702982F84
:102D8000977079F430E0482F082E000C550B24176B
:102D9000350739F08595859585950E94C9140C9461
:102DA000B416089580E090E00E94622421E08C3EF9
:102DB0009E4F09F020E0822F089582E090E00C946D
:102DC0005A24682F82E090E00C94682483E090E01D
:102DD0000C945A24682F83E090E00C946824CF93DD
:102DE00084E090E00E945A24C82F81E290E00E9483
:102DF0005A242C2F30E0A901582BCA01CF910895F5
:102E0000CF93C92F682F84E090E00E9468246C2F34
:102E100081E290E0CF910C946824AB01BC018FE07B
:102E200090E00C947A24AB01BC0183E190E00C9417
:102E30007A2460E070E0CB010C94131760E070E03E
:102E4000CB010E940D170C9419176CEE7EEF80E0F9
:102E500090E00E94862460E082E090E00E94682476
:102E600060E083E090E00E94682410926302109278
:102E70006402109265021092660260E084E090E0C5
:102E80000E94682460E081E290E00E94682460E093
:102E900085E090E00E94682460E086E090E00E9477
:102EA00068246FEF87E090E00E94682440E050E0E3
:102EB000BA0188E090E00E947A2460E08DE090E022
:102EC0000E94682440E050E0BA0188E190E00E944E
:102ED0007A2460E087E190E00E94682440E050E0BE
:102EE000BA018CE190E00E947A2460E080E290E0F8
:102EF0000E94682440E050E0BA0188E190E00E941E
:102F00007A240C941E170C942517682F8EE090E0FD
:102F10000C946824FC01329680911201882331F0D0
:102F20008091C90287FF02C09EE101C096E080E067
:102F3000915028F021912223D9F38F5FF9CF089582
:102F4000662351F1209112012223E9F02091C90258
:102F500027FF19C0462F4695469546954E31E0F419
:102F6000677021E030E002C0220F331F6A95E2F75C
:102F7000FC01E40FF11D828190E02823392381E0D8
:102F8000232B69F409C0FC0132960896219162173F
:102F900029F0E817F907D1F780E0089581E0089556
:102FA0009C01FC0132969FEF80E04191461789F029
:102FB0009F3F19F4411101C0982F8F5F8630A9F708
:102FC0009F3F39F0F901E90FF11D97FDFA956283F2
:102FD000089508959C012A5F3F4FFC0142814613EA
:102FE00001C01282019682179307B9F70895262F20
:102FF0002695269526952E3168F4FC01E20FF11DE9
:10300000677021E030E001C0220F6A95EAF7828103
:10301000282B22830895262F2695269526952E3136
:1030200070F4FC01E20FF11D677021E030E001C097
:10303000220F6A95EAF7209582812823228308953A
:1030400020911201222329F02091C90227FD0C941E
:10305000F7170C94D01720911201222329F0209108
:10306000C90227FD0C940B180C94EA172091120149
:10307000FC013296222331F08091C90287FF02C001
:103080008EE101C086E0DF011D928A95E9F708957F
:1030900008950C944818CF930E94AE020E94070333
:1030A0000E944918C0E08C2F0E94BC03892B29F490
:1030B000CF5FC630C1F780E001C081E0CF910895B5
:1030C0000C9448180C9460180E9462188091CF02EA
:1030D000843049F110928D0220E488E190E00FB62F
:1030E000F894A895809360000FBE2093600080E064
:1030F0000E9417060E94621883B7817F846083BF95
:1031000083B7816083BF7894889583B78E7F83BFB0
:103110000FB6F894A8958091600088618093600054
:10312000109260000FBE08950C9448180E9452102F
:103130000E94110B0E9417060C9494181F920F9274
:103140000FB60F9211248F939F93AF93BF938091EB
:103150008D02811113C08091C5029091C602A09189
:10316000C702B091C8024196A11DB11D8093C5024E
:103170009093C602A093C702B093C802BF91AF91CB
:103180009F918F910F900FBE0F901F90189582E026
:1031900084BD93E095BD9AEF97BD80936E0008952E
:1031A0002FB7F8948091C5029091C602A091C702F2
:1031B000B091C8022FBF08959C014FB7F894809139
:1031C000C5029091C602A091C702B091C8024FBF3C
:1031D000821B930B089578941F920F920FB60F9253
:1031E00011248F939F93AF93BF938091C5029091C9
:1031F000C602A091C702B091C8020196A11DB11DDF
:103200008093C5029093C602A093C702B093C802F0
:10321000BF91AF919F918F910F900FBE0F901F9014
:10322000189587E797E790930108809300089AE044
:1032300088E10FB6F894A895809360000FBE909334
:103240006000FFCFAF92BF92CF92DF92EF92FF92DA
:103250000F931F93CF93C0E0CC24C394D12CE82EBE
:10326000F12C8C2F0E94BC035C0100E010E0C60131
:10327000002E02C0880F991F0A94E2F78A219B2131
:10328000892B31F40F5F1F4F0E30110581F70AC0F3
:10329000602F7C2F80E00E942406E816F90691F743
:1032A00081E004C0CF5FC630E1F680E0CF911F918E
:1032B0000F91FF90EF90DF90CF90BF90AF90089567
:1032C000CF93C82F8CE20E942219882321F08C2FE3
:1032D000CF910C94221980E0CF910895CF930E9452
:1032E000D216811102C00E948317C5E6C15049F071
:1032F0000E9407038FE39CE90197F1F700C00000EB
:10330000F5CF89E20E94601981112AC18AE20E94E8
:10331000601981110E94831785E00E946019811154
:103320000E9411190E94DD1680938C0287E00E9492
:1033300060198823A9F18BE10E946019882351F05C
:1033400080918C0281FB222720F991E0922790FB4B
:1033500081F90EC08EE00E946019882361F080918F
:103360008C0282FB222720F991E0922790FB82F9C0
:1033700080938C0215C080E10E94601990918C02AC
:10338000882341F093FB222720F981E0822780FBEC
:1033900093F904C0892F809580FB90F990938C025B
:1033A00080918C020E94E1160E94EF169093CA024F
:1033B0008093C90280EE0E946019882341F08091B9
:1033C000C902982F909590FB80F98093C90289E3F8
:1033D0000E946019882359F08091C90281FB22273D
:1033E00020F991E0922790FB81F98093C90282EE47
:1033F0000E946019882359F08091C90282FB22271C
:1034000020F991E0922790FB82F98093C90286EE21
:103410000E946019882359F08091C90283FB2227FA
:1034200020F991E0922790FB83F98093C90283EE03
:103430000E946019882359F08091C90284FB2227D9
:1034400020F991E0922790FB84F98093C90285E3EB
:103450000E946019882359F08091C90285FB2227B8
:1034600020F991E0922790FB85F98093C90281E3CE
:103470000E946019882359F08091C90286FB222797
:1034800020F991E0922790FB86F98093C90281E1AF
:103490000E946019882359F08091C90287FB222776
:1034A00020F991E0922790FB87F98093C9028091DF
:1034B000C9029091CA020E94001787E20E94601917
:1034C000C82F8EE10E9460198111C2608FE10E94B5
:1034D00060198111C46080E20E9460198111C86086
:1034E00081E20E9460198111C06182E20E9460192C
:1034F0008111C06283E20E9460198111C06484E27C
:103500000E946019882311F0C06802C0CC2329F002
:103510008C2F0E94EA166C2F03C00E94E616682FBB
:1035200070E080E090E00E94481460915F0270912A
:10353000600280916102909162020E9480148FE08B
:103540000E946019882319F081E00E94851785E1A7
:103550000E946019882321F080E0CF910C94851798
:10356000CF9108958091960280FF0BC06091060173
:1035700085E0689FB00111247595679575956795ED
:103580002BC081FF09C06091060185E0689FB001F2
:1035900011247595679520C082FF07C060910601D0
:1035A00085E0689FB001112417C09091950299237E
:1035B000D1F060910501961788F72091060185E00A
:1035C000289F90011124929FA001939F500D1124D8
:1035D00070E0CA010E942C246038710540F4611526
:1035E000710519F406C065E070E0862F08958FE735
:1035F000089581E008958091960280FF08C060914F
:10360000030170E0759567957595679521C081FFF9
:1036100006C06091030170E07595679519C082FF3F
:1036200004C06091030170E010C09091940299234E
:1036300099F0609102019617A0F780910301899F8C
:10364000C001112470E00E942C246038710540F400
:103650006115710519F406C061E070E0862F0895C8
:103660008FE7089581E00895803F21F40E94B21A07
:10367000819504C0813F29F40E94B21A80939A0276
:103680000895823F21F40E94B21A819504C0833FBD
:1036900029F40E94B21A809399020895893F19F47F
:1036A0000E94FB1A05C08A3F31F40E94FB1A8195E3
:1036B00080939B0208958B3F21F40E94FB1A819511
:1036C00004C08C3F29F40E94FB1A80939C02089549
:1036D000843F21F480919802816017C0853F21F4D6
:1036E00080919802826011C0863F21F480919802F7
:1036F00084600BC0873F21F480919802886005C0E8
:10370000883F31F4809198028061809398020895F7
:103710008D3F21F48091960281600BC08E3F21F491
:1037200080919602826005C08F3F29F480919602B5
:103730008460809396020895803F39F480919A02C4
:1037400087FF6AC010929A0267C0813F29F4809176
:103750009A021816BCF360C090919902823F29F436
:1037600097FF5AC01092990257C0833F19F4191657
:10377000CCF352C090919B02893F31F419160CF0A2
:103780004BC010929B0248C08A3F19F497FF44C077
:10379000F8CF8B3F39F480919C0287FF3DC0109297
:1037A0009C023AC08C3F29F480919C021816BCF30D
:1037B00033C0843F21F4809198028E7F17C0853FEB
:1037C00021F4809198028D7F11C0863F21F4809171
:1037D00098028B7F0BC0873F21F480919802877FEE
:1037E00005C0883F31F4809198028F7E80939802C3
:1037F00013C08D3F21F4809196028E7F0BC08E3FC7
:1038000021F4809196028D7F05C08F3F29F480912D
:1038100096028B7F8093960280919902811106C057
:1038200080919A02811102C01092950280919B02B0
:10383000811106C080919C02811102C010929402F5
:1038400008950E94D01820919902211104C020915E
:103850009A02222321F09093930280939202209166
:103860009B02211104C020919C02222321F09093FD
:1038700091028093900287E992E00C94440BEF92BE
:10388000FF920F931F93CF93DF9300D000D000D00F
:10389000CDB7DEB786E0E7E9F2E0DE0111960190F0
:1038A0000D928A95E1F7E0909902F0909A020091CA
:1038B0009B0210919C021092990210929A0210920F
:1038C0009B0210929C02E11003C0FF2009F45DC02E
:1038D00080919202909193020E94DC18AC01909129
:1038E0009502992339F02091070130E0241735071C
:1038F00058F04BC020918F028AE0289F900111243C
:103900002417350718F041C09F3F19F09F5F90932F
:103910009502EE2061F00E94B21A1E1414F09FEF7F
:1039200001C091E0989F902D112490939902FF205F
:1039300061F00E94B21A1F1414F09FEF01C091E0D1
:10394000989F902D112490939A02309199023323DD
:10395000E1F020919A022223C1F045EB3403C0012B
:103960001124992319F09093990203C081E0809368
:10397000990235EB2303C0011124992319F0909388
:103980009A0203C081E080939A02011103C01123BF
:1039900009F45DC080919002909191020E94DC1820
:1039A000AC0190919402992339F02091040130E008
:1039B0002417350758F04BC020918E028AE0289FCB
:1039C000900111242417350718F041C09F3F19F0CA
:1039D0009F5F90939402002361F00E94FB1A1016DF
:1039E00014F09FEF01C091E0989F902D11249093C7
:1039F0009B02112361F00E94FB1A111614F09FEF35
:103A000001C091E0989F902D112490939C023091D9
:103A10009B023323E1F020919C022223C1F045EB6D
:103A20003403C0011124992319F090939B0203C021
:103A300081E080939B0235EB2303C001112499237D
:103A400019F090939C0203C081E080939C028091C6
:103A5000990281110BC080919A02811107C0809157
:103A60009B02811103C080919C0281110E94211C44
:103A7000EB82FC820D831E8386E0FE013196A7E96E
:103A8000B2E001900D928A95E1F726960FB6F89470
:103A9000DEBF0FBECDBFDF91CF911F910F91FF9081
:103AA000EF900895E7E9F2E086E0DF011D928A9544
:103AB000E9F71092950210929402109296020895DE
:103AC0008091BD020895CF93DF9300D01F92CDB7B0
:103AD000DEB79091CF02943019F589837B836A8396
:103AE00082E08093E9008FEF9091E800815095FD8E
:103AF00006C095ED9A95F1F700008111F5CF809100
:103B0000E80085FF0DC040E050E063E070E0CE01CA
:103B100001960E948E1F8091E8008E778093E800C6
:103B20000F900F900F90DF91CF910895BC0184E02A
:103B30000C94631DBC0183E00C94631D22E0209370
:103B4000E9002FEF3091E800215035FD06C035ED3A
:103B50003A95F1F700002111F5CF2091E80025FFFB
:103B60000BC040E050E066E070E00E948E1F809144
:103B7000E8008E778093E8000895CF93DF9320913B
:103B80001201222339F02091C90227FF03C060E20D
:103B900022E002C068E021E02093E9002FEF30919D
:103BA000E800215035FD06C035ED3A95F1F70000EB
:103BB0002111F5CF2091E80025FF1DC0EC01809177
:103BC0001201811105C040E050E068E070E003C0E0
:103BD00070E040E050E0CE010E948E1F8091E8002E
:103BE0008E778093E80080E2FE01ADE9B2E00190BB
:103BF0000D928A95E1F7DF91CF9108958091CE02E1
:103C0000811109C00E941F210E947C218091E20045
:103C100084608093E20008951092CE020895089582
:103C200008950C94961842E061EC81E00E9498207F
:103C300042E261EC82E00C9498208091D1028330C2
:103C400009F460C030F4813071F0823009F499C019
:103C500008958A3009F485C08B3009F46BC089302F
:103C600009F0A7C020C08091D002813A09F0A1C01C
:103C70008091E800877F8093E8008091D402909142
:103C8000D502892B21F460E28DE992E003C060E067
:103C900080E090E070E00E94D91F8091E8008B776F
:103CA0008093E80008958091D002813209F081C0AC
:103CB0008091D4029091D502029708F07AC0809149
:103CC000E800877F8093E8008091E80082FD05C0CE
:103CD0008091CF028111F8CF6CC02091F3008091C8
:103CE000F20090E0922B029729F48091F1008B7FF3
:103CF000813021F48091F1008093BD028091E80031
:103D00008B7753C08091D002813A09F052C08091E4
:103D1000D4029091D502892B09F04BC08091E80024
:103D2000877F8093E8008091E80080FFFCCF80913E
:103D3000120136C08091D0028132D9F58091D4022F
:103D40009091D502892BA9F58091E800877F809317
:103D5000E8000E94CD208091D202809312010C9441
:103D600052108091D002813221F58091E800877F46
:103D70008093E8000E94CD208091D3028093BE0200
:103D800008958091D002813AA1F48091E800877F64
:103D90008093E8008091E80080FFFCCF8091BE0214
:103DA0008093F1008091E8008E778093E8000C9476
:103DB000CD20089584B7877F84BF0FB6F894A89567
:103DC00080916000886180936000109260000FBE57
:103DD00090E080E80FB6F8948093610090936100C2
:103DE0000FBE0E94960B0E941F210E947C21809191
:103DF000E20084608093E20078940E9411240E9483
:103E00009C0B88E091E00E940C0B8091CF028530E2
:103E100069F40E9464188091CD028823B1F30E9456
:103E20004B18882391F30E94781FEFCF0E94AF0BAD
:103E30000E948A0B0E94890BE8CF0C941F1F292F28
:103E4000332723303105C9F060F42130310581F08A
:103E50002230310509F044C08BE390E028E732E0DE
:103E600043C021323105E1F02232310549F138C039
:103E700082E190E023EB32E037C099278130910551
:103E800049F028F0029761F5ECE4F2E005C0E4E7C0
:103E9000F2E002C0E0E6F2E0849190E09F0124C0ED
:103EA0006115710541F061307105D1F489E090E050
:103EB00023EA32E019C089E090E02AE832E014C039
:103EC0006115710541F06130710551F48CEB90E0A2
:103ED00025EC32E009C080E490E021E833E004C042
:103EE00080E090E020E030E0FA0131832083089503
:103EF00080E189BD82E189BD09B400FEFDCF8091DA
:103F0000D8008F7D8093D8008091E00082608093FC
:103F1000E0008091E00081FDFCCF0895CF92DF9218
:103F2000EF92FF920F931F93CF93DF93EC018B01DE
:103F30007A010E94EC20811133C0E114F10439F0C0
:103F4000F70180819181081B190BC80FD91FC12C63
:103F5000D12C0115110519F18091E80085FD16C0DD
:103F60008091E8008E778093E800E114F10449F035
:103F7000F70180819181C80ED91ED182C08285E06F
:103F80000FC00E94EC20882321F30AC089918093FE
:103F9000F10001501109FFEFCF1ADF0ADACF80E0FC
:103FA000DF91CF911F910F91FF90EF90DF90CF9015
:103FB00008952091D6023091D7022617370748F08E
:103FC0006115710539F42091E8002E772093E800FF
:103FD00001C0B901FC0120E06115710579F1809102
:103FE000CF028823F1F18530F1F18091E80083FD63
:103FF0003CC08091E80082FD2EC08091E80080FFE7
:10400000EBCF2091F3008091F20090E0922B6115AC
:10401000710551F08830910538F421912093F10019
:10402000615071090196F3CF21E0089709F020E073
:104030008091E8008E778093E800CECF2111CFCF1A
:104040000AC08091CF02882361F0853061F08091B1
:10405000E80083FD0AC08091E80082FFF2CF80E093
:10406000089582E0089583E0089581E00895209105
:10407000D6023091D7022617370748F0611571052F
:1040800039F42091E8002E772093E80001C0B901AF
:10409000FC0120E06115710591F18091CF02882328
:1040A00009F440C0853009F43FC08091E80083FDE9
:1040B0003DC08091E80082FD2FC08091E80080FF24
:1040C000E9CF2091F3008091F20090E0922B6115EE
:1040D000710559F08830910540F424912093F10046
:1040E0003196615071090196F2CF21E0089709F0ED
:1040F00020E08091E8008E778093E800CBCF2111FB
:10410000CCCF0AC08091CF02882361F0853061F066
:104110008091E80083FD0AC08091E80082FFF2CF21
:1041200080E0089582E0089583E0089581E0089595
:10413000982F973068F59093E900981739F07091AF
:10414000EC002091ED005091F00003C0242F762F59
:1041500050E021FD02C09F5FECCF3091EB003E7F2D
:104160003093EB003091ED003D7F3093ED003091C6
:10417000EB0031603093EB007093EC002093ED0086
:104180005093F0002091EE0027FDE5CF80E00895E8
:104190008F708093E90081E008958091D00287FFBD
:1041A00011C08091E80082FD05C08091CF0281118D
:1041B000F8CF11C08091E8008B770BC08091CF02BF
:1041C000882349F08091E80080FFF8CF8091E800D3
:1041D0008E778093E80008952091E4003091E50007
:1041E00095E64091EC00842F817040FF23C08091C0
:1041F000E80080FD1DC08091CF02882399F08530B2
:1042000099F08091EB0085FD11C04091E400509140
:10421000E5002417350729F3915011F09A01E1CFF9
:1042200084E0089582E0089583E0089581E0089590
:1042300080E008954091E80042FFDDCF08950E949C
:104240008D210E949521E0EEF0E0808181608083E5
:10425000E8EDF0E080818F77808319BCA7EDB0E0B6
:104260008C918E7F8C9380818F7E80831092CE0282
:1042700008950F931F93CF93DF930E948D210E9487
:104280009521C8EDD0E088818F7788838881806808
:10429000888388818F7D888319BC1092CF02109209
:1042A000CB021092CD021092CC0200EE10E0F80189
:1042B00080818B7F808388818160888342E060E099
:1042C00080E00E949820E1EEF0E080818E7F808384
:1042D000E2EEF0E08081816080838081886080836D
:1042E000F80180818E7F8083888180618883DF915F
:1042F000CF911F910F910895E8EDF0E080818F7EBE
:104300008083E7EDF0E080818160808384E082BF7C
:1043100081E08093CE020C943921E8EDF0E08081B9
:104320008E7F80831092E20008951092DA0010923E
:10433000E10008951F920F920FB60F9211242F9350
:104340003F934F935F936F937F938F939F93AF931D
:10435000BF93EF93FF938091E10082FF0BC08091A8
:10436000E20082FF07C08091E1008B7F8093E10033
:104370000E9410248091DA0080FF1FC08091D80035
:1043800080FF1BC08091DA008E7F8093DA008091DD
:10439000D90080FF0DC080E189BD82E189BD09B4EB
:1043A00000FEFDCF81E08093CF020E94FE1D05C07C
:1043B00019BC1092CF020E940C1E8091E10080FF78
:1043C00019C08091E20080FF15C08091E2008E7FCD
:1043D0008093E2008091E20080618093E20080910E
:1043E000D80080628093D80019BC85E08093CF020A
:1043F0000E94101E8091E10084FF30C08091E20095
:1044000084FF2CC080E189BD82E189BD09B400FE32
:10441000FDCF8091D8008F7D8093D8008091E100FE
:104420008F7E8093E1008091E2008F7E8093E20096
:104430008091E20081608093E2008091CB0288232A
:1044400011F084E007C08091E30087FD02C081E0A5
:1044500001C083E08093CF020E94111E8091E10091
:1044600083FF29C08091E20083FF25C08091E10095
:10447000877F8093E10082E08093CF021092CB028D
:104480008091E1008E7F8093E1008091E2008E7F39
:104490008093E2008091E20080618093E20042E03C
:1044A00060E080E00E9498208091F0008860809316
:1044B000F0000E940F1EFF91EF91BF91AF919F916D
:1044C0008F917F916F915F914F913F912F910F90BD
:1044D0000FBE0F901F9018951F920F920FB60F925C
:1044E00011242F933F934F935F936F937F938F93F9
:1044F0009F93AF93BF93CF93DF93EF93FF93C091BD
:10450000E900CF708091EC00D82FD17080FDD0E809
:104510001092E9008091F000877F8093F0007894FA
:104520000E94B0221092E9008091F0008860809390
:10453000F000CD2BCF70C093E900FF91EF91DF9198
:10454000CF91BF91AF919F918F917F916F915F912B
:104550004F913F912F910F900FBE0F901F90189584
:104560001F93CF93DF93CDB7DEB7AA970FB6F8941A
:10457000DEBF0FBECDBFE0EDF2E08091F100819390
:1045800022E0E83DF207C9F70E941D1E8091E80075
:1045900083FF2EC18091D0029091D102492F50E02B
:1045A0004A30510508F024C1FA01EC58FF4F0C9431
:1045B0004024803821F0823809F01AC108C0809167
:1045C000CC029091CD02992389F082600FC0809136
:1045D000D4028F70873008F00BC18093E90080917E
:1045E000EB0085FB882780F91092E9009091E800A4
:1045F000977F9093E8008093F1001092F100D1C072
:10460000282F2D7F09F0F4C0882319F0823061F043
:10461000EFC08091D202813009F0EAC0933009F0F6
:1046200080E08093CD022EC08091D20281112AC0F9
:104630008091D4028F702FEF280F263008F0D8C059
:104640008093E9002091EB0020FF1CC0933021F4FF
:104650008091EB00806214C09091EB009061909388
:10466000EB0021E030E0A90102C0440F551F8A95FC
:10467000E2F74093EA001092EA008091EB00886034
:104680008093EB001092E9008091E800877F80938F
:10469000E8000E94CD20ACC08111AAC01091D202C6
:1046A0001F778091E3008078812B8093E3008091D5
:1046B000E800877F8093E8000E94CD208091E80089
:1046C00080FFFCCF8091E30080688093E3001111AC
:1046D00002C082E001C083E08093CF0289C080588D
:1046E000823008F085C08091D2029091D3028C3D37
:1046F00053E0950779F583E08A838AE289834FB78F
:10470000F894DE01139620E03EE051E2E32FF0E062
:1047100050935700E49120FF03C0E295EF703F5F94
:10472000EF708E2F90E0EA3010F0C79601C0C0966F
:104730008D939D932F5F243149F74FBF8091E800FF
:10474000877F8093E8006AE270E0CE0101960E94C4
:10475000D91F16C06091D4027091D502AE014F5F8F
:104760005F4F0E941D1FBC01892B09F441C090912D
:10477000E800977F9093E80089819A810E94372012
:104780008091E8008B778093E80032C0803881F513
:104790008091E800877F8093E8008091CB0280932E
:1047A000F1008091E8008E7772CF811121C0809155
:1047B000D2029091D30299270297D4F48091E80015
:1047C000877F8093E8008091D2028093CB020E9481
:1047D000CD208091CB02811106C08091E30087FD3E
:1047E00002C081E001C084E08093CF020E94131ECA
:1047F0008091E80083FF0AC08091E800877F809362
:10480000E8008091EB0080628093EB00AA960FB6DF
:10481000F894DEBF0FBECDBFDF91CF911F910895F9
:104820000895CF938091CF028823A1F0C091E90031
:10483000CF709091EC00892F817090FD80E8C82B9B
:104840001092E9008091E80083FD0E94B022CF70B1
:10485000C093E900CF91089597FB072E16F40094BA
:1048600007D077FD09D00E94462407FC05D03EF40E
:10487000909581959F4F0895709561957F4F08950C
:10488000EE0FFF1F0590F491E02D0994AA1BBB1BAE
:1048900051E107C0AA1FBB1FA617B70710F0A61B40
:1048A000B70B881F991F5A95A9F780959095BC0161
:1048B000CD010895F999FECF92BD81BDF89A99274F
:1048C00080B50895A8E1B0E042E050E00C948E2459
:1048D000262FF999FECF92BD81BDF89A019700B4B9
:1048E000021639F01FBA20BD0FB6F894FA9AF99A59
:1048F0000FBE08950396272F0E9469240E94682402
:10490000252F0E946924242F0C9469240196272FB7
:104910000E9469240C946824DC01CB01FC01F99904
:10492000FECF06C0F2BDE1BDF89A319600B40D92FB
:0C49300041505040B8F70895F894FFCFB4
:10493C0069022808643C0714601DBD1D9E1D9A1D4C
:10494C00961D01E200E900EA00B500B600B700CD03
:10495C00008301CC008A01920194012102230224DC
:10496C00022502260227022A02B300B4006F00704F
:10497C0000818283E200E900EA00B500B600B700CE
:10498C00CD008301CC008A01920194012102230203
:10499C0024022502260227022A02B300B4006F006B
:0649AC007000818283000F
:00000001FF
